{
  "contractName": "UEFATeamToken",
  "abi": [
    {
      "constant": true,
      "inputs": [],
      "name": "name",
      "outputs": [
        {
          "name": "",
          "type": "string"
        }
      ],
      "payable": false,
      "stateMutability": "view",
      "type": "function"
    },
    {
      "constant": false,
      "inputs": [
        {
          "name": "_spender",
          "type": "address"
        },
        {
          "name": "_value",
          "type": "uint256"
        }
      ],
      "name": "approve",
      "outputs": [
        {
          "name": "",
          "type": "bool"
        }
      ],
      "payable": false,
      "stateMutability": "nonpayable",
      "type": "function"
    },
    {
      "constant": true,
      "inputs": [],
      "name": "totalSupply",
      "outputs": [
        {
          "name": "",
          "type": "uint256"
        }
      ],
      "payable": false,
      "stateMutability": "view",
      "type": "function"
    },
    {
      "constant": true,
      "inputs": [],
      "name": "status",
      "outputs": [
        {
          "name": "",
          "type": "uint8"
        }
      ],
      "payable": false,
      "stateMutability": "view",
      "type": "function"
    },
    {
      "constant": false,
      "inputs": [
        {
          "name": "_from",
          "type": "address"
        },
        {
          "name": "_to",
          "type": "address"
        },
        {
          "name": "_value",
          "type": "uint256"
        }
      ],
      "name": "transferFrom",
      "outputs": [
        {
          "name": "",
          "type": "bool"
        }
      ],
      "payable": false,
      "stateMutability": "nonpayable",
      "type": "function"
    },
    {
      "constant": true,
      "inputs": [],
      "name": "decimals",
      "outputs": [
        {
          "name": "",
          "type": "uint8"
        }
      ],
      "payable": false,
      "stateMutability": "view",
      "type": "function"
    },
    {
      "constant": true,
      "inputs": [
        {
          "name": "",
          "type": "address"
        }
      ],
      "name": "balances_",
      "outputs": [
        {
          "name": "",
          "type": "uint256"
        }
      ],
      "payable": false,
      "stateMutability": "view",
      "type": "function"
    },
    {
      "constant": true,
      "inputs": [
        {
          "name": "_owner",
          "type": "address"
        }
      ],
      "name": "balanceOf",
      "outputs": [
        {
          "name": "",
          "type": "uint256"
        }
      ],
      "payable": false,
      "stateMutability": "view",
      "type": "function"
    },
    {
      "constant": true,
      "inputs": [],
      "name": "owner",
      "outputs": [
        {
          "name": "",
          "type": "address"
        }
      ],
      "payable": false,
      "stateMutability": "view",
      "type": "function"
    },
    {
      "constant": true,
      "inputs": [],
      "name": "symbol",
      "outputs": [
        {
          "name": "",
          "type": "string"
        }
      ],
      "payable": false,
      "stateMutability": "view",
      "type": "function"
    },
    {
      "constant": true,
      "inputs": [],
      "name": "price",
      "outputs": [
        {
          "name": "",
          "type": "uint256"
        }
      ],
      "payable": false,
      "stateMutability": "view",
      "type": "function"
    },
    {
      "constant": true,
      "inputs": [],
      "name": "gameTime",
      "outputs": [
        {
          "name": "",
          "type": "uint64"
        }
      ],
      "payable": false,
      "stateMutability": "view",
      "type": "function"
    },
    {
      "constant": true,
      "inputs": [],
      "name": "feeOwner",
      "outputs": [
        {
          "name": "",
          "type": "address"
        }
      ],
      "payable": false,
      "stateMutability": "view",
      "type": "function"
    },
    {
      "constant": true,
      "inputs": [
        {
          "name": "_owner",
          "type": "address"
        },
        {
          "name": "_spender",
          "type": "address"
        }
      ],
      "name": "allowance",
      "outputs": [
        {
          "name": "",
          "type": "uint256"
        }
      ],
      "payable": false,
      "stateMutability": "view",
      "type": "function"
    },
    {
      "constant": false,
      "inputs": [
        {
          "name": "newOwner",
          "type": "address"
        }
      ],
      "name": "transferOwnership",
      "outputs": [],
      "payable": false,
      "stateMutability": "nonpayable",
      "type": "function"
    },
    {
      "constant": true,
      "inputs": [],
      "name": "gameOpponent",
      "outputs": [
        {
          "name": "",
          "type": "address"
        }
      ],
      "payable": false,
      "stateMutability": "view",
      "type": "function"
    },
    {
      "inputs": [
        {
          "name": "_teamName",
          "type": "string"
        },
        {
          "name": "_teamSymbol",
          "type": "string"
        },
        {
          "name": "_feeOwner",
          "type": "address"
        }
      ],
      "payable": false,
      "stateMutability": "nonpayable",
      "type": "constructor"
    },
    {
      "payable": true,
      "stateMutability": "payable",
      "type": "fallback"
    },
    {
      "anonymous": false,
      "inputs": [
        {
          "indexed": true,
          "name": "token",
          "type": "address"
        },
        {
          "indexed": true,
          "name": "from",
          "type": "address"
        },
        {
          "indexed": false,
          "name": "value",
          "type": "uint256"
        },
        {
          "indexed": false,
          "name": "weiValue",
          "type": "uint256"
        }
      ],
      "name": "Buy",
      "type": "event"
    },
    {
      "anonymous": false,
      "inputs": [
        {
          "indexed": true,
          "name": "token",
          "type": "address"
        },
        {
          "indexed": true,
          "name": "from",
          "type": "address"
        },
        {
          "indexed": false,
          "name": "value",
          "type": "uint256"
        },
        {
          "indexed": false,
          "name": "weiValue",
          "type": "uint256"
        }
      ],
      "name": "Sell",
      "type": "event"
    },
    {
      "anonymous": false,
      "inputs": [
        {
          "indexed": true,
          "name": "team1",
          "type": "address"
        },
        {
          "indexed": true,
          "name": "team2",
          "type": "address"
        },
        {
          "indexed": false,
          "name": "gameTime",
          "type": "uint64"
        }
      ],
      "name": "BeginGame",
      "type": "event"
    },
    {
      "anonymous": false,
      "inputs": [
        {
          "indexed": true,
          "name": "team1",
          "type": "address"
        },
        {
          "indexed": true,
          "name": "team2",
          "type": "address"
        },
        {
          "indexed": false,
          "name": "gameResult",
          "type": "uint8"
        }
      ],
      "name": "EndGame",
      "type": "event"
    },
    {
      "anonymous": false,
      "inputs": [
        {
          "indexed": true,
          "name": "team",
          "type": "address"
        },
        {
          "indexed": false,
          "name": "status",
          "type": "uint8"
        }
      ],
      "name": "ChangeStatus",
      "type": "event"
    },
    {
      "anonymous": false,
      "inputs": [
        {
          "indexed": true,
          "name": "previousOwner",
          "type": "address"
        },
        {
          "indexed": true,
          "name": "newOwner",
          "type": "address"
        }
      ],
      "name": "OwnershipTransferred",
      "type": "event"
    },
    {
      "anonymous": false,
      "inputs": [
        {
          "indexed": true,
          "name": "from",
          "type": "address"
        },
        {
          "indexed": true,
          "name": "to",
          "type": "address"
        },
        {
          "indexed": false,
          "name": "value",
          "type": "uint256"
        }
      ],
      "name": "Transfer",
      "type": "event"
    },
    {
      "anonymous": false,
      "inputs": [
        {
          "indexed": true,
          "name": "owner",
          "type": "address"
        },
        {
          "indexed": true,
          "name": "spender",
          "type": "address"
        },
        {
          "indexed": false,
          "name": "value",
          "type": "uint256"
        }
      ],
      "name": "Approval",
      "type": "event"
    },
    {
      "constant": false,
      "inputs": [
        {
          "name": "_to",
          "type": "address"
        },
        {
          "name": "_value",
          "type": "uint256"
        }
      ],
      "name": "transfer",
      "outputs": [
        {
          "name": "",
          "type": "bool"
        }
      ],
      "payable": false,
      "stateMutability": "nonpayable",
      "type": "function"
    },
    {
      "constant": false,
      "inputs": [
        {
          "name": "_status",
          "type": "uint8"
        }
      ],
      "name": "changeStatus",
      "outputs": [],
      "payable": false,
      "stateMutability": "nonpayable",
      "type": "function"
    },
    {
      "constant": false,
      "inputs": [],
      "name": "finish",
      "outputs": [],
      "payable": false,
      "stateMutability": "nonpayable",
      "type": "function"
    },
    {
      "constant": false,
      "inputs": [
        {
          "name": "_gameOpponent",
          "type": "address"
        },
        {
          "name": "_gameTime",
          "type": "uint64"
        }
      ],
      "name": "beginGame",
      "outputs": [],
      "payable": false,
      "stateMutability": "nonpayable",
      "type": "function"
    },
    {
      "constant": false,
      "inputs": [
        {
          "name": "_gameOpponent",
          "type": "address"
        },
        {
          "name": "_gameResult",
          "type": "uint8"
        }
      ],
      "name": "endGame",
      "outputs": [],
      "payable": false,
      "stateMutability": "nonpayable",
      "type": "function"
    },
    {
      "constant": false,
      "inputs": [],
      "name": "transferFundAndEndGame",
      "outputs": [],
      "payable": true,
      "stateMutability": "payable",
      "type": "function"
    }
  ],
  "bytecode": "0x60806040523480156200001157600080fd5b5060405162002ac738038062002ac78339810180604052810190808051820192919060200180518201929190602001805190602001909291905050508260039080519060200190620000659291906200013a565b5081600490805190602001906200007e9291906200013a565b506003600560006101000a81548160ff021916908360ff160217905550600060028190555064e8d4a5100060068190555080600760096101000a81548173ffffffffffffffffffffffffffffffffffffffff021916908373ffffffffffffffffffffffffffffffffffffffff16021790555033600560016101000a81548173ffffffffffffffffffffffffffffffffffffffff021916908373ffffffffffffffffffffffffffffffffffffffff160217905550505050620001e9565b828054600181600116156101000203166002900490600052602060002090601f016020900481019282601f106200017d57805160ff1916838001178555620001ae565b82800160010185558215620001ae579182015b82811115620001ad57825182559160200191906001019062000190565b5b509050620001bd9190620001c1565b5090565b620001e691905b80821115620001e2576000816000905550600101620001c8565b5090565b90565b6128ce80620001f96000396000f300608060405260043610610127576000357c0100000000000000000000000000000000000000000000000000000000900463ffffffff1680622031161461035057806306fdde03146103a0578063095ea7b31461043057806318160ddd14610495578063200d2ed2146104c057806323b872dd146104f1578063313ce567146105765780636ca34ea2146105a757806370a08231146105fe5780638da5cb5b1461065557806395bc9538146106ac57806395d89b41146106dc57806397b817c91461076c578063a035b1fe146107c3578063a5d1c0c0146107ee578063a9059cbb1461082d578063b9818be114610892578063c8a5e6d7146108e9578063d56b2889146108f3578063dd62ed3e1461090a578063f2fde38b14610981578063fef8383e146109c4575b600080600760009054906101000a900460ff1660ff1614801561014c57506000600654115b151561015757600080fd5b635a497a00600760019054906101000a900467ffffffffffffffff1667ffffffffffffffff1611156101b6574261012c600760019054906101000a900467ffffffffffffffff160367ffffffffffffffff161115156101b557600080fd5b5b6101cb60065434610a1b90919063ffffffff16565b905061021e816000803373ffffffffffffffffffffffffffffffffffffffff1673ffffffffffffffffffffffffffffffffffffffff16815260200190815260200160002054610a3190919063ffffffff16565b6000803373ffffffffffffffffffffffffffffffffffffffff1673ffffffffffffffffffffffffffffffffffffffff1681526020019081526020016000208190555061027581600254610a3190919063ffffffff16565b6002819055503373ffffffffffffffffffffffffffffffffffffffff163073ffffffffffffffffffffffffffffffffffffffff167fddf252ad1be2c89b69c2b068fc378daa952ba7f163c4a11628f55a4df523b3ef836040518082815260200191505060405180910390a33373ffffffffffffffffffffffffffffffffffffffff163073ffffffffffffffffffffffffffffffffffffffff167f89f5adc174562e07c9c9b1cae7109bbecb21cf9d1b2847e550042b8653c54a0e8334604051808381526020018281526020019250505060405180910390a350005b34801561035c57600080fd5b5061039e600480360381019080803573ffffffffffffffffffffffffffffffffffffffff169060200190929190803560ff169060200190929190505050610a4f565b005b3480156103ac57600080fd5b506103b561145a565b6040518080602001828103825283818151815260200191508051906020019080838360005b838110156103f55780820151818401526020810190506103da565b50505050905090810190601f1680156104225780820380516001836020036101000a031916815260200191505b509250505060405180910390f35b34801561043c57600080fd5b5061047b600480360381019080803573ffffffffffffffffffffffffffffffffffffffff169060200190929190803590602001909291905050506114f8565b604051808215151515815260200191505060405180910390f35b3480156104a157600080fd5b506104aa6115ea565b6040518082815260200191505060405180910390f35b3480156104cc57600080fd5b506104d56115f4565b604051808260ff1660ff16815260200191505060405180910390f35b3480156104fd57600080fd5b5061055c600480360381019080803573ffffffffffffffffffffffffffffffffffffffff169060200190929190803573ffffffffffffffffffffffffffffffffffffffff16906020019092919080359060200190929190505050611607565b604051808215151515815260200191505060405180910390f35b34801561058257600080fd5b5061058b6119c1565b604051808260ff1660ff16815260200191505060405180910390f35b3480156105b357600080fd5b506105e8600480360381019080803573ffffffffffffffffffffffffffffffffffffffff1690602001909291905050506119d4565b6040518082815260200191505060405180910390f35b34801561060a57600080fd5b5061063f600480360381019080803573ffffffffffffffffffffffffffffffffffffffff1690602001909291905050506119ec565b6040518082815260200191505060405180910390f35b34801561066157600080fd5b5061066a611a34565b604051808273ffffffffffffffffffffffffffffffffffffffff1673ffffffffffffffffffffffffffffffffffffffff16815260200191505060405180910390f35b3480156106b857600080fd5b506106da600480360381019080803560ff169060200190929190505050611a5a565b005b3480156106e857600080fd5b506106f1611b4c565b6040518080602001828103825283818151815260200191508051906020019080838360005b83811015610731578082015181840152602081019050610716565b50505050905090810190601f16801561075e5780820380516001836020036101000a031916815260200191505b509250505060405180910390f35b34801561077857600080fd5b506107c1600480360381019080803573ffffffffffffffffffffffffffffffffffffffff169060200190929190803567ffffffffffffffff169060200190929190505050611bea565b005b3480156107cf57600080fd5b506107d8611e61565b6040518082815260200191505060405180910390f35b3480156107fa57600080fd5b50610803611e67565b604051808267ffffffffffffffff1667ffffffffffffffff16815260200191505060405180910390f35b34801561083957600080fd5b50610878600480360381019080803573ffffffffffffffffffffffffffffffffffffffff16906020019092919080359060200190929190505050611e81565b604051808215151515815260200191505060405180910390f35b34801561089e57600080fd5b506108a761217e565b604051808273ffffffffffffffffffffffffffffffffffffffff1673ffffffffffffffffffffffffffffffffffffffff16815260200191505060405180910390f35b6108f16121a4565b005b3480156108ff57600080fd5b506109086122af565b005b34801561091657600080fd5b5061096b600480360381019080803573ffffffffffffffffffffffffffffffffffffffff169060200190929190803573ffffffffffffffffffffffffffffffffffffffff1690602001909291905050506123a0565b6040518082815260200191505060405180910390f35b34801561098d57600080fd5b506109c2600480360381019080803573ffffffffffffffffffffffffffffffffffffffff169060200190929190505050612427565b005b3480156109d057600080fd5b506109d961257f565b604051808273ffffffffffffffffffffffffffffffffffffffff1673ffffffffffffffffffffffffffffffffffffffff16815260200191505060405180910390f35b60008183811515610a2857fe5b04905092915050565b6000808284019050838110151515610a4557fe5b8091505092915050565b6000806000806000600560019054906101000a900473ffffffffffffffffffffffffffffffffffffffff1673ffffffffffffffffffffffffffffffffffffffff163373ffffffffffffffffffffffffffffffffffffffff16141515610ab357600080fd5b600073ffffffffffffffffffffffffffffffffffffffff16600860009054906101000a900473ffffffffffffffffffffffffffffffffffffffff1673ffffffffffffffffffffffffffffffffffffffff1614158015610b5f57508673ffffffffffffffffffffffffffffffffffffffff16600860009054906101000a900473ffffffffffffffffffffffffffffffffffffffff1673ffffffffffffffffffffffffffffffffffffffff16145b1515610b6a57600080fd5b3073ffffffffffffffffffffffffffffffffffffffff16319450600860009054906101000a900473ffffffffffffffffffffffffffffffffffffffff1673ffffffffffffffffffffffffffffffffffffffff1631935060018660ff161480610be1575060028660ff16148015610be05750838510155b5b80610bef575060038660ff16145b1515610bfa57600080fd5b600860009054906101000a900473ffffffffffffffffffffffffffffffffffffffff16925060018660ff161415610f6f57600085118015610c3d57506000600254115b15610eed5784915060008373ffffffffffffffffffffffffffffffffffffffff166318160ddd6040518163ffffffff167c0100000000000000000000000000000000000000000000000000000000028152600401602060405180830381600087803b158015610cab57600080fd5b505af1158015610cbf573d6000803e3d6000fd5b505050506040513d6020811015610cd557600080fd5b81019080805190602001909291905050501115610e0257610d00601483610a1b90919063ffffffff16565b9050610d1581836125a590919063ffffffff16565b9150600760099054906101000a900473ffffffffffffffffffffffffffffffffffffffff1673ffffffffffffffffffffffffffffffffffffffff166108fc829081150290604051600060405180830381858888f19350505050158015610d7f573d6000803e3d6000fd5b508273ffffffffffffffffffffffffffffffffffffffff1663c8a5e6d7836040518263ffffffff167c01000000000000000000000000000000000000000000000000000000000281526004016000604051808303818588803b158015610de457600080fd5b505af1158015610df8573d6000803e3d6000fd5b5050505050610ee8565b600760099054906101000a900473ffffffffffffffffffffffffffffffffffffffff1673ffffffffffffffffffffffffffffffffffffffff166108fc839081150290604051600060405180830381858888f19350505050158015610e6a573d6000803e3d6000fd5b508273ffffffffffffffffffffffffffffffffffffffff1663c8a5e6d76040518163ffffffff167c0100000000000000000000000000000000000000000000000000000000028152600401600060405180830381600087803b158015610ecf57600080fd5b505af1158015610ee3573d6000803e3d6000fd5b505050505b610f6a565b8273ffffffffffffffffffffffffffffffffffffffff1663c8a5e6d76040518163ffffffff167c0100000000000000000000000000000000000000000000000000000000028152600401600060405180830381600087803b158015610f5157600080fd5b505af1158015610f65573d6000803e3d6000fd5b505050505b6113a0565b60028660ff16141561130c578385111561127857610fa96002610f9b86886125a590919063ffffffff16565b610a1b90919063ffffffff16565b915060008373ffffffffffffffffffffffffffffffffffffffff166318160ddd6040518163ffffffff167c0100000000000000000000000000000000000000000000000000000000028152600401602060405180830381600087803b15801561101157600080fd5b505af1158015611025573d6000803e3d6000fd5b505050506040513d602081101561103b57600080fd5b8101908080519060200190929190505050111561118d57611066601483610a1b90919063ffffffff16565b905061107b81836125a590919063ffffffff16565b9150600860009054906101000a900473ffffffffffffffffffffffffffffffffffffffff169250600760099054906101000a900473ffffffffffffffffffffffffffffffffffffffff1673ffffffffffffffffffffffffffffffffffffffff166108fc829081150290604051600060405180830381858888f1935050505015801561110a573d6000803e3d6000fd5b508273ffffffffffffffffffffffffffffffffffffffff1663c8a5e6d7836040518263ffffffff167c01000000000000000000000000000000000000000000000000000000000281526004016000604051808303818588803b15801561116f57600080fd5b505af1158015611183573d6000803e3d6000fd5b5050505050611273565b600760099054906101000a900473ffffffffffffffffffffffffffffffffffffffff1673ffffffffffffffffffffffffffffffffffffffff166108fc839081150290604051600060405180830381858888f193505050501580156111f5573d6000803e3d6000fd5b508273ffffffffffffffffffffffffffffffffffffffff1663c8a5e6d76040518163ffffffff167c0100000000000000000000000000000000000000000000000000000000028152600401600060405180830381600087803b15801561125a57600080fd5b505af115801561126e573d6000803e3d6000fd5b505050505b611307565b83851415611301578273ffffffffffffffffffffffffffffffffffffffff1663c8a5e6d76040518163ffffffff167c0100000000000000000000000000000000000000000000000000000000028152600401600060405180830381600087803b1580156112e457600080fd5b505af11580156112f8573d6000803e3d6000fd5b50505050611306565b600080fd5b5b61139f565b60038660ff161415611399578273ffffffffffffffffffffffffffffffffffffffff1663c8a5e6d76040518163ffffffff167c0100000000000000000000000000000000000000000000000000000000028152600401600060405180830381600087803b15801561137c57600080fd5b505af1158015611390573d6000803e3d6000fd5b5050505061139e565b600080fd5b5b5b6113a86125be565b600060025411156113e6576113df6002543073ffffffffffffffffffffffffffffffffffffffff1631610a1b90919063ffffffff16565b6006819055505b8673ffffffffffffffffffffffffffffffffffffffff163073ffffffffffffffffffffffffffffffffffffffff167fca877aac494c1a237a54e53d1cf34403a485633cd56280f38c182df72936526f88604051808260ff1660ff16815260200191505060405180910390a350505050505050565b60038054600181600116156101000203166002900480601f0160208091040260200160405190810160405280929190818152602001828054600181600116156101000203166002900480156114f05780601f106114c5576101008083540402835291602001916114f0565b820191906000526020600020905b8154815290600101906020018083116114d357829003601f168201915b505050505081565b600081600160003373ffffffffffffffffffffffffffffffffffffffff1673ffffffffffffffffffffffffffffffffffffffff16815260200190815260200160002060008573ffffffffffffffffffffffffffffffffffffffff1673ffffffffffffffffffffffffffffffffffffffff168152602001908152602001600020819055508273ffffffffffffffffffffffffffffffffffffffff163373ffffffffffffffffffffffffffffffffffffffff167f8c5be1e5ebec7d5bd14f71427d1e84f3dd0314c0f7b2291e5b200ac8c7c3b925846040518082815260200191505060405180910390a36001905092915050565b6000600254905090565b600760009054906101000a900460ff1681565b60008073ffffffffffffffffffffffffffffffffffffffff168373ffffffffffffffffffffffffffffffffffffffff161415151561164457600080fd5b6000808573ffffffffffffffffffffffffffffffffffffffff1673ffffffffffffffffffffffffffffffffffffffff16815260200190815260200160002054821115151561169157600080fd5b600160008573ffffffffffffffffffffffffffffffffffffffff1673ffffffffffffffffffffffffffffffffffffffff16815260200190815260200160002060003373ffffffffffffffffffffffffffffffffffffffff1673ffffffffffffffffffffffffffffffffffffffff16815260200190815260200160002054821115151561171c57600080fd5b61176d826000808773ffffffffffffffffffffffffffffffffffffffff1673ffffffffffffffffffffffffffffffffffffffff168152602001908152602001600020546125a590919063ffffffff16565b6000808673ffffffffffffffffffffffffffffffffffffffff1673ffffffffffffffffffffffffffffffffffffffff16815260200190815260200160002081905550611800826000808673ffffffffffffffffffffffffffffffffffffffff1673ffffffffffffffffffffffffffffffffffffffff16815260200190815260200160002054610a3190919063ffffffff16565b6000808573ffffffffffffffffffffffffffffffffffffffff1673ffffffffffffffffffffffffffffffffffffffff168152602001908152602001600020819055506118d182600160008773ffffffffffffffffffffffffffffffffffffffff1673ffffffffffffffffffffffffffffffffffffffff16815260200190815260200160002060003373ffffffffffffffffffffffffffffffffffffffff1673ffffffffffffffffffffffffffffffffffffffff168152602001908152602001600020546125a590919063ffffffff16565b600160008673ffffffffffffffffffffffffffffffffffffffff1673ffffffffffffffffffffffffffffffffffffffff16815260200190815260200160002060003373ffffffffffffffffffffffffffffffffffffffff1673ffffffffffffffffffffffffffffffffffffffff168152602001908152602001600020819055508273ffffffffffffffffffffffffffffffffffffffff168473ffffffffffffffffffffffffffffffffffffffff167fddf252ad1be2c89b69c2b068fc378daa952ba7f163c4a11628f55a4df523b3ef846040518082815260200191505060405180910390a3600190509392505050565b600560009054906101000a900460ff1681565b60006020528060005260406000206000915090505481565b60008060008373ffffffffffffffffffffffffffffffffffffffff1673ffffffffffffffffffffffffffffffffffffffff168152602001908152602001600020549050919050565b600560019054906101000a900473ffffffffffffffffffffffffffffffffffffffff1681565b600560019054906101000a900473ffffffffffffffffffffffffffffffffffffffff1673ffffffffffffffffffffffffffffffffffffffff163373ffffffffffffffffffffffffffffffffffffffff16141515611ab657600080fd5b8060ff16600760009054906101000a900460ff1660ff1614151515611ada57600080fd5b80600760006101000a81548160ff021916908360ff1602179055503073ffffffffffffffffffffffffffffffffffffffff167fb82ce22096c6500c582b45cfbf153014e62fd0cbcccaf9a68dc6bfbd53d875d382604051808260ff1660ff16815260200191505060405180910390a250565b60048054600181600116156101000203166002900480601f016020809104026020016040519081016040528092919081815260200182805460018160011615610100020316600290048015611be25780601f10611bb757610100808354040283529160200191611be2565b820191906000526020600020905b815481529060010190602001808311611bc557829003601f168201915b505050505081565b600560019054906101000a900473ffffffffffffffffffffffffffffffffffffffff1673ffffffffffffffffffffffffffffffffffffffff163373ffffffffffffffffffffffffffffffffffffffff16141515611c4657600080fd5b600073ffffffffffffffffffffffffffffffffffffffff168273ffffffffffffffffffffffffffffffffffffffff1614158015611caf57503073ffffffffffffffffffffffffffffffffffffffff168273ffffffffffffffffffffffffffffffffffffffff1614155b8015611d095750600073ffffffffffffffffffffffffffffffffffffffff16600860009054906101000a900473ffffffffffffffffffffffffffffffffffffffff1673ffffffffffffffffffffffffffffffffffffffff16145b1515611d1457600080fd5b60008167ffffffffffffffff161480611d535750635a497a008167ffffffffffffffff16118015611d525750635c2aad808167ffffffffffffffff16105b5b1515611d5e57600080fd5b81600860006101000a81548173ffffffffffffffffffffffffffffffffffffffff021916908373ffffffffffffffffffffffffffffffffffffffff16021790555080600760016101000a81548167ffffffffffffffff021916908367ffffffffffffffff1602179055506000600760006101000a81548160ff021916908360ff1602179055508173ffffffffffffffffffffffffffffffffffffffff163073ffffffffffffffffffffffffffffffffffffffff167f1892465d280bc871343cfbf3c63bbbc2bee69afc8d669e83d7e94e54d74c893383604051808267ffffffffffffffff1667ffffffffffffffff16815260200191505060405180910390a35050565b60065481565b600760019054906101000a900467ffffffffffffffff1681565b6000803073ffffffffffffffffffffffffffffffffffffffff168473ffffffffffffffffffffffffffffffffffffffff16141515611eca57611ec38484612648565b9150612177565b6000803373ffffffffffffffffffffffffffffffffffffffff1673ffffffffffffffffffffffffffffffffffffffff168152602001908152602001600020548311158015611f2a57506000600760009054906101000a900460ff1660ff16145b1515611f3557600080fd5b635a497a00600760019054906101000a900467ffffffffffffffff1667ffffffffffffffff161115611f94574261012c600760019054906101000a900467ffffffffffffffff160367ffffffffffffffff16111515611f9357600080fd5b5b611fe5836000803373ffffffffffffffffffffffffffffffffffffffff1673ffffffffffffffffffffffffffffffffffffffff168152602001908152602001600020546125a590919063ffffffff16565b6000803373ffffffffffffffffffffffffffffffffffffffff1673ffffffffffffffffffffffffffffffffffffffff1681526020019081526020016000208190555061203c836002546125a590919063ffffffff16565b6002819055506120578360065461286790919063ffffffff16565b90503373ffffffffffffffffffffffffffffffffffffffff166108fc829081150290604051600060405180830381858888f1935050505015801561209f573d6000803e3d6000fd5b508373ffffffffffffffffffffffffffffffffffffffff163373ffffffffffffffffffffffffffffffffffffffff167fddf252ad1be2c89b69c2b068fc378daa952ba7f163c4a11628f55a4df523b3ef856040518082815260200191505060405180910390a33373ffffffffffffffffffffffffffffffffffffffff168473ffffffffffffffffffffffffffffffffffffffff167fa082022e93cfcd9f1da5f9236718053910f7e840da080c789c7845698dc032ff8584604051808381526020018281526020019250505060405180910390a3600191505b5092915050565b600760099054906101000a900473ffffffffffffffffffffffffffffffffffffffff1681565b600073ffffffffffffffffffffffffffffffffffffffff16600860009054906101000a900473ffffffffffffffffffffffffffffffffffffffff1673ffffffffffffffffffffffffffffffffffffffff161415801561225057503373ffffffffffffffffffffffffffffffffffffffff16600860009054906101000a900473ffffffffffffffffffffffffffffffffffffffff1673ffffffffffffffffffffffffffffffffffffffff16145b151561225b57600080fd5b60003411801561226d57506000600254115b156122a55761229e6002543073ffffffffffffffffffffffffffffffffffffffff1631610a1b90919063ffffffff16565b6006819055505b6122ad6125be565b565b600560019054906101000a900473ffffffffffffffffffffffffffffffffffffffff1673ffffffffffffffffffffffffffffffffffffffff163373ffffffffffffffffffffffffffffffffffffffff1614151561230b57600080fd5b635b31382c421015151561231e57600080fd5b600760099054906101000a900473ffffffffffffffffffffffffffffffffffffffff1673ffffffffffffffffffffffffffffffffffffffff166108fc3073ffffffffffffffffffffffffffffffffffffffff16319081150290604051600060405180830381858888f1935050505015801561239d573d6000803e3d6000fd5b50565b6000600160008473ffffffffffffffffffffffffffffffffffffffff1673ffffffffffffffffffffffffffffffffffffffff16815260200190815260200160002060008373ffffffffffffffffffffffffffffffffffffffff1673ffffffffffffffffffffffffffffffffffffffff16815260200190815260200160002054905092915050565b600560019054906101000a900473ffffffffffffffffffffffffffffffffffffffff1673ffffffffffffffffffffffffffffffffffffffff163373ffffffffffffffffffffffffffffffffffffffff1614151561248357600080fd5b600073ffffffffffffffffffffffffffffffffffffffff168173ffffffffffffffffffffffffffffffffffffffff16141515156124bf57600080fd5b8073ffffffffffffffffffffffffffffffffffffffff16600560019054906101000a900473ffffffffffffffffffffffffffffffffffffffff1673ffffffffffffffffffffffffffffffffffffffff167f8be0079c531659141344cd1fd0a4f28419497f9722a3daafe3b4186f6b6457e060405160405180910390a380600560016101000a81548173ffffffffffffffffffffffffffffffffffffffff021916908373ffffffffffffffffffffffffffffffffffffffff16021790555050565b600860009054906101000a900473ffffffffffffffffffffffffffffffffffffffff1681565b60008282111515156125b357fe5b818303905092915050565b6000600860006101000a81548173ffffffffffffffffffffffffffffffffffffffff021916908373ffffffffffffffffffffffffffffffffffffffff1602179055506000600760016101000a81548167ffffffffffffffff021916908367ffffffffffffffff1602179055506000600760006101000a81548160ff021916908360ff160217905550565b60008073ffffffffffffffffffffffffffffffffffffffff168373ffffffffffffffffffffffffffffffffffffffff161415151561268557600080fd5b6000803373ffffffffffffffffffffffffffffffffffffffff1673ffffffffffffffffffffffffffffffffffffffff1681526020019081526020016000205482111515156126d257600080fd5b612723826000803373ffffffffffffffffffffffffffffffffffffffff1673ffffffffffffffffffffffffffffffffffffffff168152602001908152602001600020546125a590919063ffffffff16565b6000803373ffffffffffffffffffffffffffffffffffffffff1673ffffffffffffffffffffffffffffffffffffffff168152602001908152602001600020819055506127b6826000808673ffffffffffffffffffffffffffffffffffffffff1673ffffffffffffffffffffffffffffffffffffffff16815260200190815260200160002054610a3190919063ffffffff16565b6000808573ffffffffffffffffffffffffffffffffffffffff1673ffffffffffffffffffffffffffffffffffffffff168152602001908152602001600020819055508273ffffffffffffffffffffffffffffffffffffffff163373ffffffffffffffffffffffffffffffffffffffff167fddf252ad1be2c89b69c2b068fc378daa952ba7f163c4a11628f55a4df523b3ef846040518082815260200191505060405180910390a36001905092915050565b600080600084141561287c576000915061289b565b828402905082848281151561288d57fe5b0414151561289757fe5b8091505b50929150505600a165627a7a7230582010d17b100b30220abc84b59f477a4de0ef6f1ab0403e6241727a2e0c67a603990029",
  "source": "pragma solidity ^0.4.21;\n\n/**\n * @title SafeMath\n * @dev https://github.com/OpenZeppelin/openzeppelin-solidity/blob/master/contracts/math/SafeMath.sol\n * @dev Math operations with safety checks that throw on error\n */\nlibrary SafeMath {\n\n    /**\n    * @dev Multiplies two numbers, throws on overflow.\n    */\n    function mul(uint256 a, uint256 b) internal pure returns (uint256) {\n        if (a == 0) {\n            return 0;\n        }\n        uint256 c = a * b;\n        assert(c / a == b);\n        return c;\n    }\n\n    /**\n    * @dev Integer division of two numbers, truncating the quotient.\n    */\n    function div(uint256 a, uint256 b) internal pure returns (uint256) {\n        // assert(b > 0); // Solidity automatically throws when dividing by 0\n        // uint256 c = a / b;\n        // assert(a == b * c + a % b); // There is no case in which this doesn't hold\n        return a / b;\n    }\n\n    /**\n    * @dev Subtracts two numbers, throws on overflow (i.e. if subtrahend is greater than minuend).\n    */\n    function sub(uint256 a, uint256 b) internal pure returns (uint256) {\n        assert(b <= a);\n        return a - b;\n    }\n\n    /**\n    * @dev Adds two numbers, throws on overflow.\n    */\n    function add(uint256 a, uint256 b) internal pure returns (uint256) {\n        uint256 c = a + b;\n        assert(c >= a);\n        return c;\n    }\n}\n\n/**\n * @title Ownable\n * @dev https://github.com/OpenZeppelin/openzeppelin-solidity/blob/master/contracts/ownership/Ownable.sol\n * @dev The Ownable contract has an owner address, and provides basic authorization control\n * functions, this simplifies the implementation of \"user permissions\".\n */\ncontract Ownable {\n    address public owner;\n\n\n    event OwnershipTransferred(address indexed previousOwner, address indexed newOwner);\n\n    /**\n     * @dev Throws if called by any account other than the owner.\n     */\n    modifier onlyOwner() {\n        require(msg.sender == owner);\n        _;\n    }\n\n    /**\n     * @dev Allows the current owner to transfer control of the contract to a newOwner.\n     * @param newOwner The address to transfer ownership to.\n     */\n    function transferOwnership(address newOwner) public onlyOwner {\n        require(newOwner != address(0));\n        emit OwnershipTransferred(owner, newOwner);\n        owner = newOwner;\n    }\n\n}\n\n/**\n * @title StandardToken\n * @dev https://github.com/OpenZeppelin/openzeppelin-solidity/blob/master/contracts/token/ERC20/StandardToken.sol\n * @dev Standard ERC20 token\n */\ncontract StandardToken {\n    using SafeMath for uint256;\n\n    event Transfer(address indexed from, address indexed to, uint256 value);\n    event Approval(address indexed owner, address indexed spender, uint256 value);\n\n    mapping(address => uint256) public balances_;\n    mapping(address => mapping(address => uint256)) internal allowed_;\n\n    uint256 internal totalSupply_;\n    string public name;\n    string public symbol;\n    uint8 public decimals;\n\n    /**\n    * @dev total number of tokens in existence\n    */\n    function totalSupply() public view returns (uint256) {\n        return totalSupply_;\n    }\n\n    /**\n    * @dev Gets the balance of the specified address.\n    * @param _owner The address to query the the balance of.\n    * @return An uint256 representing the amount owned by the passed address.\n    */\n    function balanceOf(address _owner) public view returns (uint256) {\n        return balances_[_owner];\n    }\n\n    /**\n     * @dev Function to check the amount of tokens that an owner allowed_ to a spender.\n     * @param _owner address The address which owns the funds.\n     * @param _spender address The address which will spend the funds.\n     * @return A uint256 specifying the amount of tokens still available for the spender.\n     */\n    function allowance(address _owner, address _spender) public view returns (uint256) {\n        return allowed_[_owner][_spender];\n    }\n\n    /**\n    * @dev transfer token for a specified address\n    * @param _to The address to transfer to.\n    * @param _value The amount to be transferred.\n    */\n    function transfer(address _to, uint256 _value) public returns (bool) {\n        require(_to != address(0));\n        require(_value <= balances_[msg.sender]);\n\n        balances_[msg.sender] = balances_[msg.sender].sub(_value);\n        balances_[_to] = balances_[_to].add(_value);\n        emit Transfer(msg.sender, _to, _value);\n        return true;\n    }\n\n\n    /**\n     * @dev Transfer tokens from one address to another\n     * @param _from address The address which you want to send tokens from\n     * @param _to address The address which you want to transfer to\n     * @param _value uint256 the amount of tokens to be transferred\n     */\n    function transferFrom(address _from, address _to, uint256 _value) public returns (bool) {\n        require(_to != address(0));\n        require(_value <= balances_[_from]);\n        require(_value <= allowed_[_from][msg.sender]);\n\n        balances_[_from] = balances_[_from].sub(_value);\n        balances_[_to] = balances_[_to].add(_value);\n        allowed_[_from][msg.sender] = allowed_[_from][msg.sender].sub(_value);\n        emit Transfer(_from, _to, _value);\n        return true;\n    }\n\n    /**\n     * @dev Approve the passed address to spend the specified amount of tokens on behalf of msg.sender.\n     *\n     * Beware that changing an allowance with this method brings the risk that someone may use both the old\n     * and the new allowance by unfortunate transaction ordering. One possible solution to mitigate this\n     * race condition is to first reduce the spender's allowance to 0 and set the desired value afterwards:\n     * https://github.com/ethereum/EIPs/issues/20#issuecomment-263524729\n     * @param _spender The address which will spend the funds.\n     * @param _value The amount of tokens to be spent.\n     */\n    function approve(address _spender, uint256 _value) public returns (bool) {\n        allowed_[msg.sender][_spender] = _value;\n        emit Approval(msg.sender, _spender, _value);\n        return true;\n    }\n}\n\n\n/**\n * @title UEFATeamToken\n * @dev The team token. One token represents a team. UEFATeamToken is also an ERC20 standard token.\n */\ncontract UEFATeamToken is StandardToken, Ownable {\n    event Buy(address indexed token, address indexed from, uint256 value, uint256 weiValue);\n    event Sell(address indexed token, address indexed from, uint256 value, uint256 weiValue);\n    event BeginGame(address indexed team1, address indexed team2, uint64 gameTime);\n    event EndGame(address indexed team1, address indexed team2, uint8 gameResult);\n    event ChangeStatus(address indexed team, uint8 status);\n\n    /**\n    * @dev Token price based on ETH\n    */\n    uint256 public price;\n    /**\n    * @dev status=0 buyable & sellable, user can buy or sell the token.\n    * status=1 not buyable & not sellable, user cannot buy or sell the token.\n    */\n    uint8 public status;\n    /**\n    * @dev The game start time. gameTime=0 means game time is not enabled or not started.\n    */\n    uint64 public gameTime;\n    /**\n    * @dev The fee owner. The fee will send to this address.\n    */\n    address public feeOwner;\n    /**\n    * @dev Game opponent, gameOpponent is also a UEFATeamToken.\n    */\n    address public gameOpponent;\n\n    /**\n    * @dev Team name and team symbol will be ERC20 token name and symbol. Token decimals will be 3.\n    * Token total supply will be 0. The initial price will be 1 szabo (1000000000000 Wei)\n    */\n    constructor(string _teamName, string _teamSymbol, address _feeOwner) public {\n        name = _teamName;\n        symbol = _teamSymbol;\n        decimals = 3;\n        totalSupply_ = 0;\n        price = 1 szabo;\n        feeOwner = _feeOwner;\n        owner = msg.sender;\n    }\n\n    /**\n    * @dev Sell Or Transfer the token.\n    *\n    * Override ERC20 transfer token function. If the _to address is not this UEFATeamToken,\n    * then call the super transfer function, which will be ERC20 token transfer.\n    * Otherwise, the user want to sell the token (UEFATeamToken -> ETH).\n    * @param _to address The address which you want to transfer/sell to\n    * @param _value uint256 the amount of tokens to be transferred/sold\n    */\n    function transfer(address _to, uint256 _value) public returns (bool) {\n        if (_to != address(this)) {\n            return super.transfer(_to, _value);\n        }\n        require(_value <= balances_[msg.sender] && status == 0);\n        // If gameTime is enabled (larger than 1514764800 (2018-01-01))\n        if (gameTime > 1514764800) {\n            // We will not allowed to sell after 5 minutes (300 seconds) before game start\n            require(gameTime - 300 > block.timestamp);\n        }\n        balances_[msg.sender] = balances_[msg.sender].sub(_value);\n        totalSupply_ = totalSupply_.sub(_value);\n        uint256 weiAmount = price.mul(_value);\n        msg.sender.transfer(weiAmount);\n        emit Transfer(msg.sender, _to, _value);\n        emit Sell(_to, msg.sender, _value, weiAmount);\n        return true;\n    }\n\n    /**\n    * @dev Buy token using ETH\n    *\n    * User send ETH to this UEFATeamToken, then his token balance will be increased based on price.\n    * The total supply will also be increased.\n    */\n    function() payable public {\n        require(status == 0 && price > 0);\n        // If gameTime is enabled (larger than 1514764800 (2018-01-01))\n        if (gameTime > 1514764800) {\n            // We will not allowed to sell after 5 minutes (300 seconds) before game start\n            require(gameTime - 300 > block.timestamp);\n        }\n        uint256 amount = msg.value.div(price);\n        balances_[msg.sender] = balances_[msg.sender].add(amount);\n        totalSupply_ = totalSupply_.add(amount);\n        emit Transfer(address(this), msg.sender, amount);\n        emit Buy(address(this), msg.sender, amount, msg.value);\n    }\n\n    /**\n    * @dev The the game status.\n    *\n    * status = 0 buyable & sellable, user can buy or sell the token.\n    * status=1 not buyable & not sellable, user cannot buy or sell the token.\n    * @param _status The game status.\n    */\n    function changeStatus(uint8 _status) onlyOwner public {\n        require(status != _status);\n        status = _status;\n        emit ChangeStatus(address(this), _status);\n    }\n\n    /**\n    * @dev Finish the game\n    *\n    * If the time is older than one month after 2017-18 UEFA Champions league (2018-05-26 19:45:00 UTC)\n    * The owner has permission to transfer the balance to the feeOwner.\n    * The user can get back the balance using the website after this time.\n    */\n    function finish() onlyOwner public {\n        // 2018-06-25 18:45:00 UTC\n        require(block.timestamp >= 1529952300);\n        feeOwner.transfer(address(this).balance);\n    }\n\n    /**\n    * @dev Start the game\n    *\n    * Start a new game. Initialize game opponent, game time and status.\n    * @param _gameOpponent The game opponent contract address\n    * @param _gameTime The game begin time. optional\n    */\n    function beginGame(address _gameOpponent, uint64 _gameTime) onlyOwner public {\n        require(_gameOpponent != address(0) && _gameOpponent != address(this) && gameOpponent == address(0));\n        // 1514764800 = 2018-01-01\n        // 1546300800 = 2019-01-01\n        require(_gameTime == 0 || (_gameTime > 1514764800 && _gameTime < 1546300800));\n        gameOpponent = _gameOpponent;\n        gameTime = _gameTime;\n        status = 0;\n        emit BeginGame(address(this), _gameOpponent, _gameTime);\n    }\n\n    /**\n    * @dev End the game with game final result.\n    *\n    * The function only allow to be called with the lose team or the draw team with large balance.\n    * We have this rule because the lose team or draw team will large balance need transfer balance to opposite side.\n    * This function will also change status of opposite team by calling transferFundAndEndGame function.\n    * So the function only need to be called one time for the home and away team.\n    * The new price will be recalculated based on the new balance and total supply.\n    *\n    * Balance transfer rule:\n    * 1. The rose team will transfer all balance to opposite side.\n    * 2. If the game is draw, the balances of two team will go fifty-fifty.\n    * 3. If game is canceled, the balance is not touched and the game states will be reset to initial states.\n    * 4. The fee will be 5% of each transfer amount.\n    * @param _gameOpponent The game opponent contract address\n    * @param _gameResult game result. 1=lose, 2=draw, 3=cancel, 4=win (not allow)\n    */\n    function endGame(address _gameOpponent, uint8 _gameResult) onlyOwner public {\n        require(gameOpponent != address(0) && gameOpponent == _gameOpponent);\n        uint256 amount = address(this).balance;\n        uint256 opAmount = gameOpponent.balance;\n        require(_gameResult == 1 || (_gameResult == 2 && amount >= opAmount) || _gameResult == 3);\n        UEFATeamToken op = UEFATeamToken(gameOpponent);\n        if (_gameResult == 1) {\n            // Lose\n            if (amount > 0 && totalSupply_ > 0) {\n                uint256 lostAmount = amount;\n                // If opponent has supply\n                if (op.totalSupply() > 0) {\n                    // fee is 5%\n                    uint256 feeAmount = lostAmount.div(20);\n                    lostAmount = lostAmount.sub(feeAmount);\n                    feeOwner.transfer(feeAmount);\n                    op.transferFundAndEndGame.value(lostAmount)();\n                } else {\n                    // If opponent has not supply, then send the lose money to fee owner.\n                    feeOwner.transfer(lostAmount);\n                    op.transferFundAndEndGame();\n                }\n            } else {\n                op.transferFundAndEndGame();\n            }\n        } else if (_gameResult == 2) {\n            // Draw\n            if (amount > opAmount) {\n                lostAmount = amount.sub(opAmount).div(2);\n                if (op.totalSupply() > 0) {\n                    // fee is 5%\n                    feeAmount = lostAmount.div(20);\n                    lostAmount = lostAmount.sub(feeAmount);\n                    op = UEFATeamToken(gameOpponent);\n                    feeOwner.transfer(feeAmount);\n                    op.transferFundAndEndGame.value(lostAmount)();\n                } else {\n                    feeOwner.transfer(lostAmount);\n                    op.transferFundAndEndGame();\n                }\n            } else if (amount == opAmount) {\n                op.transferFundAndEndGame();\n            } else {\n                // should not happen\n                revert();\n            }\n        } else if (_gameResult == 3) {\n            //canceled\n            op.transferFundAndEndGame();\n        } else {\n            // should not happen\n            revert();\n        }\n        endGameInternal();\n        if (totalSupply_ > 0) {\n            price = address(this).balance.div(totalSupply_);\n        }\n        emit EndGame(address(this), _gameOpponent, _gameResult);\n    }\n\n    /**\n    * @dev Reset team token states\n    *\n    */\n    function endGameInternal() private {\n        gameOpponent = address(0);\n        gameTime = 0;\n        status = 0;\n    }\n\n    /**\n    * @dev Reset team states and recalculate the price.\n    *\n    * This function will be called by opponent team token after end game.\n    * It accepts the ETH transfer and recalculate the new price based on\n    * new balance and total supply.\n    */\n    function transferFundAndEndGame() payable public {\n        require(gameOpponent != address(0) && gameOpponent == msg.sender);\n        if (msg.value > 0 && totalSupply_ > 0) {\n            price = address(this).balance.div(totalSupply_);\n        }\n        endGameInternal();\n    }\n}",
  "sourcePath": "/Users/fatzhou/Desktop/workspace/etherpaul_contract/contracts/UEFAChampionsLeague2018EthTeamToken.sol",
  "compiler": {
    "name": "solc",
    "version": "0.4.24+commit.e67f0147.Emscripten.clang"
  },
  "schemaVersion": "2.0.0",
  "updatedAt": "2018-06-14T06:58:27.220Z"
}